{
  "contractName": "LockBitx",
  "abi": [
    {
      "inputs": [
        {
          "internalType": "contract BEP20",
          "name": "_bitx",
          "type": "address"
        },
        {
          "internalType": "contract BEP20",
          "name": "_meat",
          "type": "address"
        },
        {
          "internalType": "address",
          "name": "_devaddr",
          "type": "address"
        },
        {
          "internalType": "uint256",
          "name": "_meatPerBlock",
          "type": "uint256"
        },
        {
          "internalType": "uint256",
          "name": "_startBlock",
          "type": "uint256"
        }
      ],
      "stateMutability": "nonpayable",
      "type": "constructor"
    },
    {
      "anonymous": false,
      "inputs": [
        {
          "indexed": true,
          "internalType": "address",
          "name": "user",
          "type": "address"
        },
        {
          "indexed": false,
          "internalType": "uint256",
          "name": "amount",
          "type": "uint256"
        }
      ],
      "name": "Deposit",
      "type": "event"
    },
    {
      "anonymous": false,
      "inputs": [
        {
          "indexed": true,
          "internalType": "address",
          "name": "user",
          "type": "address"
        },
        {
          "indexed": false,
          "internalType": "uint256",
          "name": "amount",
          "type": "uint256"
        }
      ],
      "name": "EmergencyWithdraw",
      "type": "event"
    },
    {
      "anonymous": false,
      "inputs": [
        {
          "indexed": true,
          "internalType": "address",
          "name": "previousOwner",
          "type": "address"
        },
        {
          "indexed": true,
          "internalType": "address",
          "name": "newOwner",
          "type": "address"
        }
      ],
      "name": "OwnershipTransferred",
      "type": "event"
    },
    {
      "anonymous": false,
      "inputs": [
        {
          "indexed": true,
          "internalType": "address",
          "name": "user",
          "type": "address"
        },
        {
          "indexed": false,
          "internalType": "uint256",
          "name": "amount",
          "type": "uint256"
        }
      ],
      "name": "Withdraw",
      "type": "event"
    },
    {
      "inputs": [],
      "name": "BONUS_MULTIPLIER",
      "outputs": [
        {
          "internalType": "uint256",
          "name": "",
          "type": "uint256"
        }
      ],
      "stateMutability": "view",
      "type": "function"
    },
    {
      "inputs": [],
      "name": "accMeatPerShare",
      "outputs": [
        {
          "internalType": "uint256",
          "name": "",
          "type": "uint256"
        }
      ],
      "stateMutability": "view",
      "type": "function"
    },
    {
      "inputs": [],
      "name": "allocPoint",
      "outputs": [
        {
          "internalType": "uint256",
          "name": "",
          "type": "uint256"
        }
      ],
      "stateMutability": "view",
      "type": "function"
    },
    {
      "inputs": [],
      "name": "bitx",
      "outputs": [
        {
          "internalType": "contract BEP20",
          "name": "",
          "type": "address"
        }
      ],
      "stateMutability": "view",
      "type": "function"
    },
    {
      "inputs": [],
      "name": "devaddr",
      "outputs": [
        {
          "internalType": "address",
          "name": "",
          "type": "address"
        }
      ],
      "stateMutability": "view",
      "type": "function"
    },
    {
      "inputs": [],
      "name": "lastRewardBlock",
      "outputs": [
        {
          "internalType": "uint256",
          "name": "",
          "type": "uint256"
        }
      ],
      "stateMutability": "view",
      "type": "function"
    },
    {
      "inputs": [],
      "name": "lpToken",
      "outputs": [
        {
          "internalType": "contract IBEP20",
          "name": "",
          "type": "address"
        }
      ],
      "stateMutability": "view",
      "type": "function"
    },
    {
      "inputs": [],
      "name": "meat",
      "outputs": [
        {
          "internalType": "contract BEP20",
          "name": "",
          "type": "address"
        }
      ],
      "stateMutability": "view",
      "type": "function"
    },
    {
      "inputs": [],
      "name": "meatPerBlock",
      "outputs": [
        {
          "internalType": "uint256",
          "name": "",
          "type": "uint256"
        }
      ],
      "stateMutability": "view",
      "type": "function"
    },
    {
      "inputs": [],
      "name": "migrator",
      "outputs": [
        {
          "internalType": "contract IMigratorChef",
          "name": "",
          "type": "address"
        }
      ],
      "stateMutability": "view",
      "type": "function"
    },
    {
      "inputs": [],
      "name": "owner",
      "outputs": [
        {
          "internalType": "address",
          "name": "",
          "type": "address"
        }
      ],
      "stateMutability": "view",
      "type": "function"
    },
    {
      "inputs": [],
      "name": "renounceOwnership",
      "outputs": [],
      "stateMutability": "nonpayable",
      "type": "function"
    },
    {
      "inputs": [],
      "name": "startBlock",
      "outputs": [
        {
          "internalType": "uint256",
          "name": "",
          "type": "uint256"
        }
      ],
      "stateMutability": "view",
      "type": "function"
    },
    {
      "inputs": [],
      "name": "totalAllocPoint",
      "outputs": [
        {
          "internalType": "uint256",
          "name": "",
          "type": "uint256"
        }
      ],
      "stateMutability": "view",
      "type": "function"
    },
    {
      "inputs": [
        {
          "internalType": "address",
          "name": "newOwner",
          "type": "address"
        }
      ],
      "name": "transferOwnership",
      "outputs": [],
      "stateMutability": "nonpayable",
      "type": "function"
    },
    {
      "inputs": [
        {
          "internalType": "address",
          "name": "",
          "type": "address"
        }
      ],
      "name": "userInfo",
      "outputs": [
        {
          "internalType": "uint256",
          "name": "amount",
          "type": "uint256"
        },
        {
          "internalType": "uint256",
          "name": "rewardDebt",
          "type": "uint256"
        },
        {
          "internalType": "uint256",
          "name": "lastDepositedTime",
          "type": "uint256"
        }
      ],
      "stateMutability": "view",
      "type": "function"
    },
    {
      "inputs": [],
      "name": "withdrawFeePeriod",
      "outputs": [
        {
          "internalType": "uint256",
          "name": "",
          "type": "uint256"
        }
      ],
      "stateMutability": "view",
      "type": "function"
    },
    {
      "inputs": [
        {
          "internalType": "uint256",
          "name": "multiplierNumber",
          "type": "uint256"
        }
      ],
      "name": "updateMultiplier",
      "outputs": [],
      "stateMutability": "nonpayable",
      "type": "function"
    },
    {
      "inputs": [
        {
          "internalType": "contract IMigratorChef",
          "name": "_migrator",
          "type": "address"
        }
      ],
      "name": "setMigrator",
      "outputs": [],
      "stateMutability": "nonpayable",
      "type": "function"
    },
    {
      "inputs": [
        {
          "internalType": "address",
          "name": "account",
          "type": "address"
        }
      ],
      "name": "getEnableWithdraw",
      "outputs": [
        {
          "internalType": "bool",
          "name": "",
          "type": "bool"
        }
      ],
      "stateMutability": "view",
      "type": "function"
    },
    {
      "inputs": [
        {
          "internalType": "uint256",
          "name": "_from",
          "type": "uint256"
        },
        {
          "internalType": "uint256",
          "name": "_to",
          "type": "uint256"
        }
      ],
      "name": "getMultiplier",
      "outputs": [
        {
          "internalType": "uint256",
          "name": "",
          "type": "uint256"
        }
      ],
      "stateMutability": "view",
      "type": "function"
    },
    {
      "inputs": [
        {
          "internalType": "address",
          "name": "_user",
          "type": "address"
        }
      ],
      "name": "pendingMeat",
      "outputs": [
        {
          "internalType": "uint256",
          "name": "",
          "type": "uint256"
        }
      ],
      "stateMutability": "view",
      "type": "function"
    },
    {
      "inputs": [],
      "name": "updatePool",
      "outputs": [],
      "stateMutability": "nonpayable",
      "type": "function"
    },
    {
      "inputs": [
        {
          "internalType": "uint256",
          "name": "_amount",
          "type": "uint256"
        }
      ],
      "name": "deposit",
      "outputs": [],
      "stateMutability": "nonpayable",
      "type": "function"
    },
    {
      "inputs": [
        {
          "internalType": "uint256",
          "name": "_amount",
          "type": "uint256"
        }
      ],
      "name": "withdraw",
      "outputs": [],
      "stateMutability": "nonpayable",
      "type": "function"
    },
    {
      "inputs": [],
      "name": "emergencyWithdraw",
      "outputs": [],
      "stateMutability": "nonpayable",
      "type": "function"
    },
    {
      "inputs": [
        {
          "internalType": "address",
          "name": "_devaddr",
          "type": "address"
        }
      ],
      "name": "dev",
      "outputs": [],
      "stateMutability": "nonpayable",
      "type": "function"
    }
  ],
  "bytecode": "0x608060405260016009556303b53800600a556000600d553480156200002357600080fd5b50604051620014ec380380620014ec833981016040819052620000469162000110565b6000620000526200010c565b600080546001600160a01b0319166001600160a01b0383169081178255604051929350917f8be0079c531659141344cd1fd0a4f28419497f9722a3daafe3b4186f6b6457e0908290a350600580546001600160a01b03199081166001600160a01b03978816908117909255600680548216968816969096179095556007805486169490961693909317909455600855600e839055600180549092161790556103e860028190556003919091556000600455600d556200018d565b3390565b600080600080600060a0868803121562000128578081fd5b8551620001358162000174565b6020870151909550620001488162000174565b60408701519094506200015b8162000174565b6060870151608090970151959894975095949392505050565b6001600160a01b03811681146200018a57600080fd5b50565b61134f806200019d6000396000f3fe608060405234801561001057600080fd5b50600436106101a95760003560e01c80638383a752116100f9578063d3dd7eb711610097578063db2e21bc11610071578063db2e21bc1461030a578063df10b4e614610312578063e3161ddd1461031a578063f2fde38b14610322576101a9565b8063d3dd7eb7146102f2578063d49e77cd146102fa578063d686dba014610302576101a9565b80638da5cb5b116100d35780638da5cb5b146102bc5780638dbb1e3a146102c4578063a9f8d181146102d7578063b6b55f25146102df576101a9565b80638383a752146102995780638aa28550146102a15780638d88a90e146102a9576101a9565b80633d0a6253116101665780635fcbd285116101405780635fcbd2851461026e5780635ffe614614610276578063715018a6146102895780637cd07e4714610291576101a9565b80633d0a62531461023357806347a83c731461024657806348cd4cb114610266576101a9565b806307faa7f5146101ae57806317caf6f1146101cc5780631959a002146101e157806323cf3118146102035780632e1a7d4d146102185780633525e6131461022b575b600080fd5b6101b6610335565b6040516101c39190610fe3565b60405180910390f35b6101d4610344565b6040516101c39190611235565b6101f46101ef366004610f3a565b61034a565b6040516101c39392919061123e565b610216610211366004610f3a565b61036b565b005b610216610226366004610f76565b6103cb565b6101d46104f3565b6101d4610241366004610f3a565b6104f9565b610259610254366004610f3a565b61063b565b6040516101c39190611034565b6101d461068e565b6101b6610694565b610216610284366004610f76565b6106a3565b6102166106dd565b6101b661075c565b6101b661076b565b6101d461077a565b6102166102b7366004610f3a565b610780565b6101b66107cc565b6101d46102d2366004610fa6565b6107db565b6101d46107f8565b6102166102ed366004610f76565b6107fe565b6101d46108eb565b6101b66108f1565b6101d4610900565b610216610906565b6101d4610977565b61021661097d565b610216610330366004610f3a565b610a75565b6006546001600160a01b031681565b600d5481565b600c6020526000908152604090208054600182015460029092015490919083565b610373610ab6565b6000546001600160a01b039081169116146103a95760405162461bcd60e51b81526004016103a09061119d565b60405180910390fd5b600b80546001600160a01b0319166001600160a01b0392909216919091179055565b336000908152600c6020526040902080548211156103fb5760405162461bcd60e51b81526004016103a090611209565b61040361097d565b600061043b826001015461043564e8d4a5100061042f6004548760000154610aba90919063ffffffff16565b90610aff565b90610b41565b9050801561044d5761044d3382610b83565b60008311801561046c5750600a54600283015461046991610c0c565b42115b1561049657815461047d9084610b41565b8255600154610496906001600160a01b03163385610c3b565b60045482546104af9164e8d4a510009161042f91610aba565b600183015560405133907f884edad9ce6fa2440d8a54cc123490eb96d2768479d49ff9c7366125a9424364906104e6908690611235565b60405180910390a2505050565b60085481565b6001600160a01b038082166000908152600c60205260408082206004805460015493516370a0823160e01b8152949592949093869316916370a082319161054291309101610fe3565b60206040518083038186803b15801561055a57600080fd5b505afa15801561056e573d6000803e3d6000fd5b505050506040513d601f19601f820116820180604052508101906105929190610f8e565b9050600354431180156105a457508015155b156106085760006105b7600354436107db565b905060006105e2600d5461042f6002546105dc60085487610aba90919063ffffffff16565b90610aba565b90506106036105fa8461042f8464e8d4a51000610aba565b60045490610c0c565b935050505b610632836001015461043564e8d4a5100061042f6004548860000154610aba90919063ffffffff16565b95945050505050565b6001600160a01b0381166000908152600c6020908152604080832081516060810183528154815260018201549381019390935260020154908201819052600a546106859190610c0c565b42119392505050565b600e5481565b6001546001600160a01b031681565b6106ab610ab6565b6000546001600160a01b039081169116146106d85760405162461bcd60e51b81526004016103a09061119d565b600955565b6106e5610ab6565b6000546001600160a01b039081169116146107125760405162461bcd60e51b81526004016103a09061119d565b600080546040516001600160a01b03909116907f8be0079c531659141344cd1fd0a4f28419497f9722a3daafe3b4186f6b6457e0908390a3600080546001600160a01b0319169055565b600b546001600160a01b031681565b6005546001600160a01b031681565b60095481565b6007546001600160a01b031633146107aa5760405162461bcd60e51b81526004016103a090611139565b600780546001600160a01b0319166001600160a01b0392909216919091179055565b6000546001600160a01b031690565b6009546000906107ef906105dc8486610b41565b90505b92915050565b60035481565b336000908152600c6020526040902061081561097d565b80541561085c576000610848826001015461043564e8d4a5100061042f6004548760000154610aba90919063ffffffff16565b9050801561085a5761085a3382610b83565b505b81156108895760015461087a906001600160a01b0316333085610c91565b80546108869083610c0c565b81555b60045481546108a29164e8d4a510009161042f91610aba565b600182015542600282015560405133907fe1fffcc4923d04b559f4d29a8bfc6cda04eb5b0d3c460751c2402c5c5cc9109c906108df908590611235565b60405180910390a25050565b60025481565b6007546001600160a01b031681565b60045481565b336000818152600c602052604090208054600154919261092f926001600160a01b031691610c3b565b805460405133917f5fafa99d0643513820be26656b45130b01e1c03062e1266bf36f88cbd3bd9695916109629190611235565b60405180910390a26000808255600190910155565b600a5481565b600354431161098b57610a73565b6001546040516370a0823160e01b81526000916001600160a01b0316906370a08231906109bc903090600401610fe3565b60206040518083038186803b1580156109d457600080fd5b505afa1580156109e8573d6000803e3d6000fd5b505050506040513d601f19601f82011682018060405250810190610a0c9190610f8e565b905080610a1d575043600355610a73565b6000610a2b600354436107db565b90506000610a50600d5461042f6002546105dc60085487610aba90919063ffffffff16565b9050610a686105fa8461042f8464e8d4a51000610aba565b600455505043600355505b565b610a7d610ab6565b6000546001600160a01b03908116911614610aaa5760405162461bcd60e51b81526004016103a09061119d565b610ab381610cb8565b50565b3390565b600082610ac9575060006107f2565b6000610ad5838561128c565b905082610ae2858361126c565b146107ef5760405162461bcd60e51b81526004016103a09061115c565b60006107ef83836040518060400160405280601a81526020017f536166654d6174683a206469766973696f6e206279207a65726f000000000000815250610d39565b60006107ef83836040518060400160405280601e81526020017f536166654d6174683a207375627472616374696f6e206f766572666c6f770000815250610d67565b60065460405163a9059cbb60e01b81526001600160a01b039091169063a9059cbb90610bb5908590859060040161101b565b602060405180830381600087803b158015610bcf57600080fd5b505af1158015610be3573d6000803e3d6000fd5b505050506040513d601f19601f82011682018060405250810190610c079190610f56565b505050565b600080610c198385611254565b9050838110156107ef5760405162461bcd60e51b81526004016103a090611102565b610c078363a9059cbb60e01b8484604051602401610c5a92919061101b565b60408051601f198184030181529190526020810180516001600160e01b03166001600160e01b031990931692909217909152610d98565b610cb2846323b872dd60e01b858585604051602401610c5a93929190610ff7565b50505050565b6001600160a01b038116610cde5760405162461bcd60e51b81526004016103a0906110bc565b600080546040516001600160a01b03808516939216917f8be0079c531659141344cd1fd0a4f28419497f9722a3daafe3b4186f6b6457e091a3600080546001600160a01b0319166001600160a01b0392909216919091179055565b60008183610d5a5760405162461bcd60e51b81526004016103a0919061103f565b506000610632848661126c565b60008184841115610d8b5760405162461bcd60e51b81526004016103a0919061103f565b50600061063284866112ab565b6000610ded826040518060400160405280602081526020017f5361666542455032303a206c6f772d6c6576656c2063616c6c206661696c6564815250856001600160a01b0316610e279092919063ffffffff16565b805190915015610c075780806020019051810190610e0b9190610f56565b610c075760405162461bcd60e51b81526004016103a090611072565b6060610e368484600085610e3e565b949350505050565b6060610e4985610f01565b610e655760405162461bcd60e51b81526004016103a0906111d2565b600080866001600160a01b03168587604051610e819190610fc7565b60006040518083038185875af1925050503d8060008114610ebe576040519150601f19603f3d011682016040523d82523d6000602084013e610ec3565b606091505b50915091508115610ed7579150610e369050565b805115610ee75780518082602001fd5b8360405162461bcd60e51b81526004016103a0919061103f565b6000813f7fc5d2460186f7233c927e7db2dcc703c0e500b653ca82273b7bfad8045d85a470818114801590610e36575050151592915050565b600060208284031215610f4b578081fd5b81356107ef81611304565b600060208284031215610f67578081fd5b815180151581146107ef578182fd5b600060208284031215610f87578081fd5b5035919050565b600060208284031215610f9f578081fd5b5051919050565b60008060408385031215610fb8578081fd5b50508035926020909101359150565b60008251610fd98184602087016112c2565b9190910192915050565b6001600160a01b0391909116815260200190565b6001600160a01b039384168152919092166020820152604081019190915260600190565b6001600160a01b03929092168252602082015260400190565b901515815260200190565b600060208252825180602084015261105e8160408501602087016112c2565b601f01601f19169190910160400192915050565b6020808252602a908201527f5361666542455032303a204245503230206f7065726174696f6e20646964206e6040820152691bdd081cdd58d8d9595960b21b606082015260800190565b60208082526026908201527f4f776e61626c653a206e6577206f776e657220697320746865207a65726f206160408201526564647265737360d01b606082015260800190565b6020808252601b908201527f536166654d6174683a206164646974696f6e206f766572666c6f770000000000604082015260600190565b6020808252600990820152686465763a207775743f60b81b604082015260600190565b60208082526021908201527f536166654d6174683a206d756c7469706c69636174696f6e206f766572666c6f6040820152607760f81b606082015260800190565b6020808252818101527f4f776e61626c653a2063616c6c6572206973206e6f7420746865206f776e6572604082015260600190565b6020808252601d908201527f416464726573733a2063616c6c20746f206e6f6e2d636f6e7472616374000000604082015260600190565b6020808252601290820152711dda5d1a191c985dce881b9bdd0819dbdbd960721b604082015260600190565b90815260200190565b9283526020830191909152604082015260600190565b60008219821115611267576112676112ee565b500190565b60008261128757634e487b7160e01b81526012600452602481fd5b500490565b60008160001904831182151516156112a6576112a66112ee565b500290565b6000828210156112bd576112bd6112ee565b500390565b60005b838110156112dd5781810151838201526020016112c5565b83811115610cb25750506000910152565b634e487b7160e01b600052601160045260246000fd5b6001600160a01b0381168114610ab357600080fdfea26469706673582212207c44c8f41a6c504616f360c0fa5f7273bef1dc42d78ae9d697ff665fc1bc59b664736f6c63430008000033",
  "immutableReferences": {},
  "source": "// SPDX-License-Identifier: MIT\r\npragma solidity ^0.8.0;\r\n\r\n\r\n// \r\n/**\r\n * @dev Wrappers over Solidity's arithmetic operations with added overflow\r\n * checks.\r\n *\r\n * Arithmetic operations in Solidity wrap on overflow. This can easily result\r\n * in bugs, because programmers usually assume that an overflow raises an\r\n * error, which is the standard behavior in high level programming languages.\r\n * `SafeMath` restores this intuition by reverting the transaction when an\r\n * operation overflows.\r\n *\r\n * Using this library instead of the unchecked operations eliminates an entire\r\n * class of bugs, so it's recommended to use it always.\r\n */\r\nlibrary SafeMath {\r\n    /**\r\n     * @dev Returns the addition of two unsigned integers, reverting on\r\n     * overflow.\r\n     *\r\n     * Counterpart to Solidity's `+` operator.\r\n     *\r\n     * Requirements:\r\n     *\r\n     * - Addition cannot overflow.\r\n     */\r\n    function add(uint256 a, uint256 b) internal pure returns (uint256) {\r\n        uint256 c = a + b;\r\n        require(c >= a, 'SafeMath: addition overflow');\r\n\r\n        return c;\r\n    }\r\n\r\n    /**\r\n     * @dev Returns the subtraction of two unsigned integers, reverting on\r\n     * overflow (when the result is negative).\r\n     *\r\n     * Counterpart to Solidity's `-` operator.\r\n     *\r\n     * Requirements:\r\n     *\r\n     * - Subtraction cannot overflow.\r\n     */\r\n    function sub(uint256 a, uint256 b) internal pure returns (uint256) {\r\n        return sub(a, b, 'SafeMath: subtraction overflow');\r\n    }\r\n\r\n    /**\r\n     * @dev Returns the subtraction of two unsigned integers, reverting with custom message on\r\n     * overflow (when the result is negative).\r\n     *\r\n     * Counterpart to Solidity's `-` operator.\r\n     *\r\n     * Requirements:\r\n     *\r\n     * - Subtraction cannot overflow.\r\n     */\r\n    function sub(\r\n        uint256 a,\r\n        uint256 b,\r\n        string memory errorMessage\r\n    ) internal pure returns (uint256) {\r\n        require(b <= a, errorMessage);\r\n        uint256 c = a - b;\r\n\r\n        return c;\r\n    }\r\n\r\n    /**\r\n     * @dev Returns the multiplication of two unsigned integers, reverting on\r\n     * overflow.\r\n     *\r\n     * Counterpart to Solidity's `*` operator.\r\n     *\r\n     * Requirements:\r\n     *\r\n     * - Multiplication cannot overflow.\r\n     */\r\n    function mul(uint256 a, uint256 b) internal pure returns (uint256) {\r\n        // Gas optimization: this is cheaper than requiring 'a' not being zero, but the\r\n        // benefit is lost if 'b' is also tested.\r\n        // See: https://github.com/OpenZeppelin/openzeppelin-contracts/pull/522\r\n        if (a == 0) {\r\n            return 0;\r\n        }\r\n\r\n        uint256 c = a * b;\r\n        require(c / a == b, 'SafeMath: multiplication overflow');\r\n\r\n        return c;\r\n    }\r\n\r\n    /**\r\n     * @dev Returns the integer division of two unsigned integers. Reverts on\r\n     * division by zero. The result is rounded towards zero.\r\n     *\r\n     * Counterpart to Solidity's `/` operator. Note: this function uses a\r\n     * `revert` opcode (which leaves remaining gas untouched) while Solidity\r\n     * uses an invalid opcode to revert (consuming all remaining gas).\r\n     *\r\n     * Requirements:\r\n     *\r\n     * - The divisor cannot be zero.\r\n     */\r\n    function div(uint256 a, uint256 b) internal pure returns (uint256) {\r\n        return div(a, b, 'SafeMath: division by zero');\r\n    }\r\n\r\n    /**\r\n     * @dev Returns the integer division of two unsigned integers. Reverts with custom message on\r\n     * division by zero. The result is rounded towards zero.\r\n     *\r\n     * Counterpart to Solidity's `/` operator. Note: this function uses a\r\n     * `revert` opcode (which leaves remaining gas untouched) while Solidity\r\n     * uses an invalid opcode to revert (consuming all remaining gas).\r\n     *\r\n     * Requirements:\r\n     *\r\n     * - The divisor cannot be zero.\r\n     */\r\n    function div(\r\n        uint256 a,\r\n        uint256 b,\r\n        string memory errorMessage\r\n    ) internal pure returns (uint256) {\r\n        require(b > 0, errorMessage);\r\n        uint256 c = a / b;\r\n        // assert(a == b * c + a % b); // There is no case in which this doesn't hold\r\n\r\n        return c;\r\n    }\r\n\r\n    /**\r\n     * @dev Returns the remainder of dividing two unsigned integers. (unsigned integer modulo),\r\n     * Reverts when dividing by zero.\r\n     *\r\n     * Counterpart to Solidity's `%` operator. This function uses a `revert`\r\n     * opcode (which leaves remaining gas untouched) while Solidity uses an\r\n     * invalid opcode to revert (consuming all remaining gas).\r\n     *\r\n     * Requirements:\r\n     *\r\n     * - The divisor cannot be zero.\r\n     */\r\n    function mod(uint256 a, uint256 b) internal pure returns (uint256) {\r\n        return mod(a, b, 'SafeMath: modulo by zero');\r\n    }\r\n\r\n    /**\r\n     * @dev Returns the remainder of dividing two unsigned integers. (unsigned integer modulo),\r\n     * Reverts with custom message when dividing by zero.\r\n     *\r\n     * Counterpart to Solidity's `%` operator. This function uses a `revert`\r\n     * opcode (which leaves remaining gas untouched) while Solidity uses an\r\n     * invalid opcode to revert (consuming all remaining gas).\r\n     *\r\n     * Requirements:\r\n     *\r\n     * - The divisor cannot be zero.\r\n     */\r\n    function mod(\r\n        uint256 a,\r\n        uint256 b,\r\n        string memory errorMessage\r\n    ) internal pure returns (uint256) {\r\n        require(b != 0, errorMessage);\r\n        return a % b;\r\n    }\r\n\r\n    function min(uint256 x, uint256 y) internal pure returns (uint256 z) {\r\n        z = x < y ? x : y;\r\n    }\r\n\r\n    // babylonian method (https://en.wikipedia.org/wiki/Methods_of_computing_square_roots#Babylonian_method)\r\n    function sqrt(uint256 y) internal pure returns (uint256 z) {\r\n        if (y > 3) {\r\n            z = y;\r\n            uint256 x = y / 2 + 1;\r\n            while (x < z) {\r\n                z = x;\r\n                x = (y / x + x) / 2;\r\n            }\r\n        } else if (y != 0) {\r\n            z = 1;\r\n        }\r\n    }\r\n}\r\n\r\n// \r\ninterface IBEP20 {\r\n    /**\r\n     * @dev Returns the amount of tokens in existence.\r\n     */\r\n    function totalSupply() external view returns (uint256);\r\n\r\n    /**\r\n     * @dev Returns the token decimals.\r\n     */\r\n    function decimals() external view returns (uint8);\r\n\r\n    /**\r\n     * @dev Returns the token symbol.\r\n     */\r\n    function symbol() external view returns (string memory);\r\n\r\n    /**\r\n     * @dev Returns the token name.\r\n     */\r\n    function name() external view returns (string memory);\r\n\r\n    /**\r\n     * @dev Returns the bep token owner.\r\n     */\r\n    function getOwner() external view returns (address);\r\n\r\n    /**\r\n     * @dev Returns the amount of tokens owned by `account`.\r\n     */\r\n    function balanceOf(address account) external view returns (uint256);\r\n\r\n    /**\r\n     * @dev Moves `amount` tokens from the caller's account to `recipient`.\r\n     *\r\n     * Returns a boolean value indicating whether the operation succeeded.\r\n     *\r\n     * Emits a {Transfer} event.\r\n     */\r\n    function transfer(address recipient, uint256 amount) external returns (bool);\r\n\r\n    /**\r\n     * @dev Returns the remaining number of tokens that `spender` will be\r\n     * allowed to spend on behalf of `owner` through {transferFrom}. This is\r\n     * zero by default.\r\n     *\r\n     * This value changes when {approve} or {transferFrom} are called.\r\n     */\r\n    function allowance(address _owner, address spender) external view returns (uint256);\r\n\r\n    /**\r\n     * @dev Sets `amount` as the allowance of `spender` over the caller's tokens.\r\n     *\r\n     * Returns a boolean value indicating whether the operation succeeded.\r\n     *\r\n     * IMPORTANT: Beware that changing an allowance with this method brings the risk\r\n     * that someone may use both the old and the new allowance by unfortunate\r\n     * transaction ordering. One possible solution to mitigate this race\r\n     * condition is to first reduce the spender's allowance to 0 and set the\r\n     * desired value afterwards:\r\n     * https://github.com/ethereum/EIPs/issues/20#issuecomment-263524729\r\n     *\r\n     * Emits an {Approval} event.\r\n     */\r\n    function approve(address spender, uint256 amount) external returns (bool);\r\n\r\n    /**\r\n     * @dev Moves `amount` tokens from `sender` to `recipient` using the\r\n     * allowance mechanism. `amount` is then deducted from the caller's\r\n     * allowance.\r\n     *\r\n     * Returns a boolean value indicating whether the operation succeeded.\r\n     *\r\n     * Emits a {Transfer} event.\r\n     */\r\n    function transferFrom(\r\n        address sender,\r\n        address recipient,\r\n        uint256 amount\r\n    ) external returns (bool);\r\n\r\n    /**\r\n     * @dev Emitted when `value` tokens are moved from one account (`from`) to\r\n     * another (`to`).\r\n     *\r\n     * Note that `value` may be zero.\r\n     */\r\n    event Transfer(address indexed from, address indexed to, uint256 value);\r\n\r\n    /**\r\n     * @dev Emitted when the allowance of a `spender` for an `owner` is set by\r\n     * a call to {approve}. `value` is the new allowance.\r\n     */\r\n    event Approval(address indexed owner, address indexed spender, uint256 value);\r\n}\r\n\r\n// \r\n/**\r\n * @dev Collection of functions related to the address type\r\n */\r\nlibrary Address {\r\n    /**\r\n     * @dev Returns true if `account` is a contract.\r\n     *\r\n     * [IMPORTANT]\r\n     * ====\r\n     * It is unsafe to assume that an address for which this function returns\r\n     * false is an externally-owned account (EOA) and not a contract.\r\n     *\r\n     * Among others, `isContract` will return false for the following\r\n     * types of addresses:\r\n     *\r\n     *  - an externally-owned account\r\n     *  - a contract in construction\r\n     *  - an address where a contract will be created\r\n     *  - an address where a contract lived, but was destroyed\r\n     * ====\r\n     */\r\n    function isContract(address account) internal view returns (bool) {\r\n        // According to EIP-1052, 0x0 is the value returned for not-yet created accounts\r\n        // and 0xc5d2460186f7233c927e7db2dcc703c0e500b653ca82273b7bfad8045d85a470 is returned\r\n        // for accounts without code, i.e. `keccak256('')`\r\n        bytes32 codehash;\r\n        bytes32 accountHash = 0xc5d2460186f7233c927e7db2dcc703c0e500b653ca82273b7bfad8045d85a470;\r\n        // solhint-disable-next-line no-inline-assembly\r\n        assembly {\r\n            codehash := extcodehash(account)\r\n        }\r\n        return (codehash != accountHash && codehash != 0x0);\r\n    }\r\n\r\n    /**\r\n     * @dev Replacement for Solidity's `transfer`: sends `amount` wei to\r\n     * `recipient`, forwarding all available gas and reverting on errors.\r\n     *\r\n     * https://eips.ethereum.org/EIPS/eip-1884[EIP1884] increases the gas cost\r\n     * of certain opcodes, possibly making contracts go over the 2300 gas limit\r\n     * imposed by `transfer`, making them unable to receive funds via\r\n     * `transfer`. {sendValue} removes this limitation.\r\n     *\r\n     * https://diligence.consensys.net/posts/2019/09/stop-using-soliditys-transfer-now/[Learn more].\r\n     *\r\n     * IMPORTANT: because control is transferred to `recipient`, care must be\r\n     * taken to not create reentrancy vulnerabilities. Consider using\r\n     * {ReentrancyGuard} or the\r\n     * https://solidity.readthedocs.io/en/v0.5.11/security-considerations.html#use-the-checks-effects-interactions-pattern[checks-effects-interactions pattern].\r\n     */\r\n    function sendValue(address payable recipient, uint256 amount) internal {\r\n        require(address(this).balance >= amount, 'Address: insufficient balance');\r\n\r\n        // solhint-disable-next-line avoid-low-level-calls, avoid-call-value\r\n        (bool success, ) = recipient.call{value: amount}('');\r\n        require(success, 'Address: unable to send value, recipient may have reverted');\r\n    }\r\n\r\n    /**\r\n     * @dev Performs a Solidity function call using a low level `call`. A\r\n     * plain`call` is an unsafe replacement for a function call: use this\r\n     * function instead.\r\n     *\r\n     * If `target` reverts with a revert reason, it is bubbled up by this\r\n     * function (like regular Solidity function calls).\r\n     *\r\n     * Returns the raw returned data. To convert to the expected return value,\r\n     * use https://solidity.readthedocs.io/en/latest/units-and-global-variables.html?highlight=abi.decode#abi-encoding-and-decoding-functions[`abi.decode`].\r\n     *\r\n     * Requirements:\r\n     *\r\n     * - `target` must be a contract.\r\n     * - calling `target` with `data` must not revert.\r\n     *\r\n     * _Available since v3.1._\r\n     */\r\n    function functionCall(address target, bytes memory data) internal returns (bytes memory) {\r\n        return functionCall(target, data, 'Address: low-level call failed');\r\n    }\r\n\r\n    /**\r\n     * @dev Same as {xref-Address-functionCall-address-bytes-}[`functionCall`], but with\r\n     * `errorMessage` as a fallback revert reason when `target` reverts.\r\n     *\r\n     * _Available since v3.1._\r\n     */\r\n    function functionCall(\r\n        address target,\r\n        bytes memory data,\r\n        string memory errorMessage\r\n    ) internal returns (bytes memory) {\r\n        return _functionCallWithValue(target, data, 0, errorMessage);\r\n    }\r\n\r\n    /**\r\n     * @dev Same as {xref-Address-functionCall-address-bytes-}[`functionCall`],\r\n     * but also transferring `value` wei to `target`.\r\n     *\r\n     * Requirements:\r\n     *\r\n     * - the calling contract must have an ETH balance of at least `value`.\r\n     * - the called Solidity function must be `payable`.\r\n     *\r\n     * _Available since v3.1._\r\n     */\r\n    function functionCallWithValue(\r\n        address target,\r\n        bytes memory data,\r\n        uint256 value\r\n    ) internal returns (bytes memory) {\r\n        return functionCallWithValue(target, data, value, 'Address: low-level call with value failed');\r\n    }\r\n\r\n    /**\r\n     * @dev Same as {xref-Address-functionCallWithValue-address-bytes-uint256-}[`functionCallWithValue`], but\r\n     * with `errorMessage` as a fallback revert reason when `target` reverts.\r\n     *\r\n     * _Available since v3.1._\r\n     */\r\n    function functionCallWithValue(\r\n        address target,\r\n        bytes memory data,\r\n        uint256 value,\r\n        string memory errorMessage\r\n    ) internal returns (bytes memory) {\r\n        require(address(this).balance >= value, 'Address: insufficient balance for call');\r\n        return _functionCallWithValue(target, data, value, errorMessage);\r\n    }\r\n\r\n    function _functionCallWithValue(\r\n        address target,\r\n        bytes memory data,\r\n        uint256 weiValue,\r\n        string memory errorMessage\r\n    ) private returns (bytes memory) {\r\n        require(isContract(target), 'Address: call to non-contract');\r\n\r\n        // solhint-disable-next-line avoid-low-level-calls\r\n        (bool success, bytes memory returndata) = target.call{value: weiValue}(data);\r\n        if (success) {\r\n            return returndata;\r\n        } else {\r\n            // Look for revert reason and bubble it up if present\r\n            if (returndata.length > 0) {\r\n                // The easiest way to bubble the revert reason is using memory via assembly\r\n\r\n                // solhint-disable-next-line no-inline-assembly\r\n                assembly {\r\n                    let returndata_size := mload(returndata)\r\n                    revert(add(32, returndata), returndata_size)\r\n                }\r\n            } else {\r\n                revert(errorMessage);\r\n            }\r\n        }\r\n    }\r\n}\r\n\r\n// \r\n/**\r\n * @title SafeBEP20\r\n * @dev Wrappers around BEP20 operations that throw on failure (when the token\r\n * contract returns false). Tokens that return no value (and instead revert or\r\n * throw on failure) are also supported, non-reverting calls are assumed to be\r\n * successful.\r\n * To use this library you can add a `using SafeBEP20 for IBEP20;` statement to your contract,\r\n * which allows you to call the safe operations as `token.safeTransfer(...)`, etc.\r\n */\r\nlibrary SafeBEP20 {\r\n    using SafeMath for uint256;\r\n    using Address for address;\r\n\r\n    function safeTransfer(\r\n        IBEP20 token,\r\n        address to,\r\n        uint256 value\r\n    ) internal {\r\n        _callOptionalReturn(token, abi.encodeWithSelector(token.transfer.selector, to, value));\r\n    }\r\n\r\n    function safeTransferFrom(\r\n        IBEP20 token,\r\n        address from,\r\n        address to,\r\n        uint256 value\r\n    ) internal {\r\n        _callOptionalReturn(token, abi.encodeWithSelector(token.transferFrom.selector, from, to, value));\r\n    }\r\n\r\n    /**\r\n     * @dev Deprecated. This function has issues similar to the ones found in\r\n     * {IBEP20-approve}, and its usage is discouraged.\r\n     *\r\n     * Whenever possible, use {safeIncreaseAllowance} and\r\n     * {safeDecreaseAllowance} instead.\r\n     */\r\n    function safeApprove(\r\n        IBEP20 token,\r\n        address spender,\r\n        uint256 value\r\n    ) internal {\r\n        // safeApprove should only be called when setting an initial allowance,\r\n        // or when resetting it to zero. To increase and decrease it, use\r\n        // 'safeIncreaseAllowance' and 'safeDecreaseAllowance'\r\n        // solhint-disable-next-line max-line-length\r\n        require(\r\n            (value == 0) || (token.allowance(address(this), spender) == 0),\r\n            'SafeBEP20: approve from non-zero to non-zero allowance'\r\n        );\r\n        _callOptionalReturn(token, abi.encodeWithSelector(token.approve.selector, spender, value));\r\n    }\r\n\r\n    function safeIncreaseAllowance(\r\n        IBEP20 token,\r\n        address spender,\r\n        uint256 value\r\n    ) internal {\r\n        uint256 newAllowance = token.allowance(address(this), spender).add(value);\r\n        _callOptionalReturn(token, abi.encodeWithSelector(token.approve.selector, spender, newAllowance));\r\n    }\r\n\r\n    function safeDecreaseAllowance(\r\n        IBEP20 token,\r\n        address spender,\r\n        uint256 value\r\n    ) internal {\r\n        uint256 newAllowance = token.allowance(address(this), spender).sub(\r\n            value,\r\n            'SafeBEP20: decreased allowance below zero'\r\n        );\r\n        _callOptionalReturn(token, abi.encodeWithSelector(token.approve.selector, spender, newAllowance));\r\n    }\r\n\r\n    /**\r\n     * @dev Imitates a Solidity high-level call (i.e. a regular function call to a contract), relaxing the requirement\r\n     * on the return value: the return value is optional (but if data is returned, it must not be false).\r\n     * @param token The token targeted by the call.\r\n     * @param data The call data (encoded using abi.encode or one of its variants).\r\n     */\r\n    function _callOptionalReturn(IBEP20 token, bytes memory data) private {\r\n        // We need to perform a low level call here, to bypass Solidity's return data size checking mechanism, since\r\n        // we're implementing it ourselves. We use {Address.functionCall} to perform this call, which verifies that\r\n        // the target address contains contract code and also asserts for success in the low-level call.\r\n\r\n        bytes memory returndata = address(token).functionCall(data, 'SafeBEP20: low-level call failed');\r\n        if (returndata.length > 0) {\r\n            // Return data is optional\r\n            // solhint-disable-next-line max-line-length\r\n            require(abi.decode(returndata, (bool)), 'SafeBEP20: BEP20 operation did not succeed');\r\n        }\r\n    }\r\n}\r\n\r\n// \r\n/*\r\n * @dev Provides information about the current execution context, including the\r\n * sender of the transaction and its data. While these are generally available\r\n * via msg.sender and msg.data, they should not be accessed in such a direct\r\n * manner, since when dealing with GSN meta-transactions the account sending and\r\n * paying for execution may not be the actual sender (as far as an application\r\n * is concerned).\r\n *\r\n * This contract is only required for intermediate, library-like contracts.\r\n */\r\ncontract Context {\r\n    // Empty internal constructor, to prevent people from mistakenly deploying\r\n    // an instance of this contract, which should be used via inheritance.\r\n    constructor() {}\r\n\r\n    function _msgSender() internal view returns (address) {\r\n        return msg.sender;\r\n    }\r\n\r\n    function _msgData() internal view returns (bytes memory) {\r\n        this; // silence state mutability warning without generating bytecode - see https://github.com/ethereum/solidity/issues/2691\r\n        return msg.data;\r\n    }\r\n}\r\n\r\n// \r\n/**\r\n * @dev Contract module which provides a basic access control mechanism, where\r\n * there is an account (an owner) that can be granted exclusive access to\r\n * specific functions.\r\n *\r\n * By default, the owner account will be the one that deploys the contract. This\r\n * can later be changed with {transferOwnership}.\r\n *\r\n * This module is used through inheritance. It will make available the modifier\r\n * `onlyOwner`, which can be applied to your functions to restrict their use to\r\n * the owner.\r\n */\r\ncontract Ownable is Context {\r\n    address private _owner;\r\n\r\n    event OwnershipTransferred(address indexed previousOwner, address indexed newOwner);\r\n\r\n    /**\r\n     * @dev Initializes the contract setting the deployer as the initial owner.\r\n     */\r\n    constructor()  {\r\n        address msgSender = _msgSender();\r\n        _owner = msgSender;\r\n        emit OwnershipTransferred(address(0), msgSender);\r\n    }\r\n\r\n    /**\r\n     * @dev Returns the address of the current owner.\r\n     */\r\n    function owner() public view returns (address) {\r\n        return _owner;\r\n    }\r\n\r\n    /**\r\n     * @dev Throws if called by any account other than the owner.\r\n     */\r\n    modifier onlyOwner() {\r\n        require(_owner == _msgSender(), 'Ownable: caller is not the owner');\r\n        _;\r\n    }\r\n\r\n    /**\r\n     * @dev Leaves the contract without owner. It will not be possible to call\r\n     * `onlyOwner` functions anymore. Can only be called by the current owner.\r\n     *\r\n     * NOTE: Renouncing ownership will leave the contract without an owner,\r\n     * thereby removing any functionality that is only available to the owner.\r\n     */\r\n    function renounceOwnership() public onlyOwner {\r\n        emit OwnershipTransferred(_owner, address(0));\r\n        _owner = address(0);\r\n    }\r\n\r\n    /**\r\n     * @dev Transfers ownership of the contract to a new account (`newOwner`).\r\n     * Can only be called by the current owner.\r\n     */\r\n    function transferOwnership(address newOwner) public onlyOwner {\r\n        _transferOwnership(newOwner);\r\n    }\r\n\r\n    /**\r\n     * @dev Transfers ownership of the contract to a new account (`newOwner`).\r\n     */\r\n    function _transferOwnership(address newOwner) internal {\r\n        require(newOwner != address(0), 'Ownable: new owner is the zero address');\r\n        emit OwnershipTransferred(_owner, newOwner);\r\n        _owner = newOwner;\r\n    }\r\n}\r\n\r\n// \r\n/**\r\n * @dev Implementation of the {IBEP20} interface.\r\n *\r\n * This implementation is agnostic to the way tokens are created. This means\r\n * that a supply mechanism has to be added in a derived contract using {_mint}.\r\n * For a generic mechanism see {BEP20PresetMinterPauser}.\r\n *\r\n * TIP: For a detailed writeup see our guide\r\n * https://forum.zeppelin.solutions/t/how-to-implement-BEP20-supply-mechanisms/226[How\r\n * to implement supply mechanisms].\r\n *\r\n * We have followed general OpenZeppelin guidelines: functions revert instead\r\n * of returning `false` on failure. This behavior is nonetheless conventional\r\n * and does not conflict with the expectations of BEP20 applications.\r\n *\r\n * Additionally, an {Approval} event is emitted on calls to {transferFrom}.\r\n * This allows applications to reconstruct the allowance for all accounts just\r\n * by listening to said events. Other implementations of the EIP may not emit\r\n * these events, as it isn't required by the specification.\r\n *\r\n * Finally, the non-standard {decreaseAllowance} and {increaseAllowance}\r\n * functions have been added to mitigate the well-known issues around setting\r\n * allowances. See {IBEP20-approve}.\r\n */\r\ncontract BEP20 is Context, IBEP20, Ownable {\r\n    using SafeMath for uint256;\r\n    using Address for address;\r\n\r\n    mapping(address => uint256) private _balances;\r\n\r\n    mapping(address => mapping(address => uint256)) private _allowances;\r\n\r\n    uint256 private _totalSupply;\r\n\r\n    string private _name;\r\n    string private _symbol;\r\n    uint8 private _decimals;\r\n\r\n    /**\r\n     * @dev Sets the values for {name} and {symbol}, initializes {decimals} with\r\n     * a default value of 18.\r\n     *\r\n     * To select a different value for {decimals}, use {_setupDecimals}.\r\n     *\r\n     * All three of these values are immutable: they can only be set once during\r\n     * construction.\r\n     */\r\n    constructor(string memory name_, string memory symbol_) {\r\n        _name = name_;\r\n        _symbol = symbol_;\r\n        _decimals = 18;\r\n    }\r\n\r\n    /**\r\n     * @dev Returns the bep token owner.\r\n     */\r\n    function getOwner() external override view returns (address) {\r\n        return owner();\r\n    }\r\n\r\n    /**\r\n     * @dev Returns the token name.\r\n     */\r\n    function name() public override view returns (string memory) {\r\n        return _name;\r\n    }\r\n\r\n    /**\r\n     * @dev Returns the token decimals.\r\n     */\r\n    function decimals() public override view returns (uint8) {\r\n        return _decimals;\r\n    }\r\n\r\n    /**\r\n     * @dev Returns the token symbol.\r\n     */\r\n    function symbol() public override view returns (string memory) {\r\n        return _symbol;\r\n    }\r\n\r\n    /**\r\n     * @dev See {BEP20-totalSupply}.\r\n     */\r\n    function totalSupply() public override view returns (uint256) {\r\n        return _totalSupply;\r\n    }\r\n\r\n    /**\r\n     * @dev See {BEP20-balanceOf}.\r\n     */\r\n    function balanceOf(address account) public override view returns (uint256) {\r\n        return _balances[account];\r\n    }\r\n\r\n    /**\r\n     * @dev See {BEP20-transfer}.\r\n     *\r\n     * Requirements:\r\n     *\r\n     * - `recipient` cannot be the zero address.\r\n     * - the caller must have a balance of at least `amount`.\r\n     */\r\n    function transfer(address recipient, uint256 amount) public override returns (bool) {\r\n        _transfer(_msgSender(), recipient, amount);\r\n        return true;\r\n    }\r\n\r\n    /**\r\n     * @dev See {BEP20-allowance}.\r\n     */\r\n    function allowance(address owner, address spender) public override view returns (uint256) {\r\n        return _allowances[owner][spender];\r\n    }\r\n\r\n    /**\r\n     * @dev See {BEP20-approve}.\r\n     *\r\n     * Requirements:\r\n     *\r\n     * - `spender` cannot be the zero address.\r\n     */\r\n    function approve(address spender, uint256 amount) public override returns (bool) {\r\n        _approve(_msgSender(), spender, amount);\r\n        return true;\r\n    }\r\n\r\n    /**\r\n     * @dev See {BEP20-transferFrom}.\r\n     *\r\n     * Emits an {Approval} event indicating the updated allowance. This is not\r\n     * required by the EIP. See the note at the beginning of {BEP20};\r\n     *\r\n     * Requirements:\r\n     * - `sender` and `recipient` cannot be the zero address.\r\n     * - `sender` must have a balance of at least `amount`.\r\n     * - the caller must have allowance for `sender`'s tokens of at least\r\n     * `amount`.\r\n     */\r\n    function transferFrom(\r\n        address sender,\r\n        address recipient,\r\n        uint256 amount\r\n    ) public override returns (bool) {\r\n        _transfer(sender, recipient, amount);\r\n        _approve(\r\n            sender,\r\n            _msgSender(),\r\n            _allowances[sender][_msgSender()].sub(amount, 'BEP20: transfer amount exceeds allowance')\r\n        );\r\n        return true;\r\n    }\r\n\r\n    /**\r\n     * @dev Atomically increases the allowance granted to `spender` by the caller.\r\n     *\r\n     * This is an alternative to {approve} that can be used as a mitigation for\r\n     * problems described in {BEP20-approve}.\r\n     *\r\n     * Emits an {Approval} event indicating the updated allowance.\r\n     *\r\n     * Requirements:\r\n     *\r\n     * - `spender` cannot be the zero address.\r\n     */\r\n    function increaseAllowance(address spender, uint256 addedValue) public returns (bool) {\r\n        _approve(_msgSender(), spender, _allowances[_msgSender()][spender].add(addedValue));\r\n        return true;\r\n    }\r\n\r\n    /**\r\n     * @dev Atomically decreases the allowance granted to `spender` by the caller.\r\n     *\r\n     * This is an alternative to {approve} that can be used as a mitigation for\r\n     * problems described in {BEP20-approve}.\r\n     *\r\n     * Emits an {Approval} event indicating the updated allowance.\r\n     *\r\n     * Requirements:\r\n     *\r\n     * - `spender` cannot be the zero address.\r\n     * - `spender` must have allowance for the caller of at least\r\n     * `subtractedValue`.\r\n     */\r\n    function decreaseAllowance(address spender, uint256 subtractedValue) public returns (bool) {\r\n        _approve(\r\n            _msgSender(),\r\n            spender,\r\n            _allowances[_msgSender()][spender].sub(subtractedValue, 'BEP20: decreased allowance below zero')\r\n        );\r\n        return true;\r\n    }\r\n\r\n    /**\r\n     * @dev Creates `amount` tokens and assigns them to `msg.sender`, increasing\r\n     * the total supply.\r\n     *\r\n     * Requirements\r\n     *\r\n     * - `msg.sender` must be the token owner\r\n     */\r\n    function mint(uint256 amount) public onlyOwner returns (bool) {\r\n        _mint(_msgSender(), amount);\r\n        return true;\r\n    }\r\n\r\n    /**\r\n     * @dev Moves tokens `amount` from `sender` to `recipient`.\r\n     *\r\n     * This is internal function is equivalent to {transfer}, and can be used to\r\n     * e.g. implement automatic token fees, slashing mechanisms, etc.\r\n     *\r\n     * Emits a {Transfer} event.\r\n     *\r\n     * Requirements:\r\n     *\r\n     * - `sender` cannot be the zero address.\r\n     * - `recipient` cannot be the zero address.\r\n     * - `sender` must have a balance of at least `amount`.\r\n     */\r\n    function _transfer(\r\n        address sender,\r\n        address recipient,\r\n        uint256 amount\r\n    ) internal {\r\n        require(sender != address(0), 'BEP20: transfer from the zero address');\r\n        require(recipient != address(0), 'BEP20: transfer to the zero address');\r\n\r\n        _balances[sender] = _balances[sender].sub(amount, 'BEP20: transfer amount exceeds balance');\r\n        _balances[recipient] = _balances[recipient].add(amount);\r\n        emit Transfer(sender, recipient, amount);\r\n    }\r\n\r\n    /** @dev Creates `amount` tokens and assigns them to `account`, increasing\r\n     * the total supply.\r\n     *\r\n     * Emits a {Transfer} event with `from` set to the zero address.\r\n     *\r\n     * Requirements\r\n     *\r\n     * - `to` cannot be the zero address.\r\n     */\r\n    function _mint(address account, uint256 amount) internal {\r\n        require(account != address(0), 'BEP20: mint to the zero address');\r\n\r\n        _totalSupply = _totalSupply.add(amount);\r\n        _balances[account] = _balances[account].add(amount);\r\n        emit Transfer(address(0), account, amount);\r\n    }\r\n\r\n    /**\r\n     * @dev Destroys `amount` tokens from `account`, reducing the\r\n     * total supply.\r\n     *\r\n     * Emits a {Transfer} event with `to` set to the zero address.\r\n     *\r\n     * Requirements\r\n     *\r\n     * - `account` cannot be the zero address.\r\n     * - `account` must have at least `amount` tokens.\r\n     */\r\n    function _burn(address account, uint256 amount) internal {\r\n        require(account != address(0), 'BEP20: burn from the zero address');\r\n\r\n        _balances[account] = _balances[account].sub(amount, 'BEP20: burn amount exceeds balance');\r\n        _totalSupply = _totalSupply.sub(amount);\r\n        emit Transfer(account, address(0), amount);\r\n    }\r\n\r\n    /**\r\n     * @dev Sets `amount` as the allowance of `spender` over the `owner`s tokens.\r\n     *\r\n     * This is internal function is equivalent to `approve`, and can be used to\r\n     * e.g. set automatic allowances for certain subsystems, etc.\r\n     *\r\n     * Emits an {Approval} event.\r\n     *\r\n     * Requirements:\r\n     *\r\n     * - `owner` cannot be the zero address.\r\n     * - `spender` cannot be the zero address.\r\n     */\r\n    function _approve(\r\n        address owner,\r\n        address spender,\r\n        uint256 amount\r\n    ) internal {\r\n        require(owner != address(0), 'BEP20: approve from the zero address');\r\n        require(spender != address(0), 'BEP20: approve to the zero address');\r\n\r\n        _allowances[owner][spender] = amount;\r\n        emit Approval(owner, spender, amount);\r\n    }\r\n\r\n    /**\r\n     * @dev Destroys `amount` tokens from `account`.`amount` is then deducted\r\n     * from the caller's allowance.\r\n     *\r\n     * See {_burn} and {_approve}.\r\n     */\r\n    function _burnFrom(address account, uint256 amount) internal {\r\n        _burn(account, amount);\r\n        _approve(\r\n            account,\r\n            _msgSender(),\r\n            _allowances[account][_msgSender()].sub(amount, 'BEP20: burn amount exceeds allowance')\r\n        );\r\n    }\r\n}\r\n\r\n\r\n// import \"@nomiclabs/buidler/console.sol\";\r\ninterface IMigratorChef {\r\n    // Perform LP token migration from legacy PancakeSwap to CakeSwap.\r\n    // Take the current LP token address and return the new LP token address.\r\n    // Migrator should have full access to the caller's LP token.\r\n    // Return the new LP token address.\r\n    //\r\n    // XXX Migrator must have allowance access to PancakeSwap LP tokens.\r\n    // CakeSwap must mint EXACTLY the same amount of CakeSwap LP tokens or\r\n    // else something bad will happen. Traditional PancakeSwap does not\r\n    // do that so be careful!\r\n    function migrate(IBEP20 token) external returns (IBEP20);\r\n}\r\n\r\n// MasterChef is the master of Meat. He can make Meat and he is a fair guy.\r\n//\r\n// Note that it's ownable and the owner wields tremendous power. The ownership\r\n// will be transferred to a governance smart contract once Meat is sufficiently\r\n// distributed and the community can show to govern itself.\r\n//\r\n// Have fun reading it. Hopefully it's bug-free. God bless.\r\ncontract LockBitx is Ownable {\r\n    using SafeMath for uint256;\r\n    using SafeBEP20 for IBEP20;\r\n\r\n    // Info of each user.\r\n    struct UserInfo {\r\n        uint256 amount;     // How many LP tokens the user has provided.\r\n        uint256 rewardDebt; // Reward debt. See explanation below.\r\n        //\r\n        // We do some fancy math here. Basically, any point in time, the amount of Meats\r\n        // entitled to a user but is pending to be distributed is:\r\n        //\r\n        //   pending reward = (user.amount * pool.accMeatPerShare) - user.rewardDebt\r\n        //\r\n        // Whenever a user deposits or withdraws LP tokens to a pool. Here's what happens:\r\n        //   1. The pool's `accMeatPerShare` (and `lastRewardBlock`) gets updated.\r\n        //   2. User receives the pending reward sent to his/her address.\r\n        //   3. User's `amount` gets updated.\r\n        //   4. User's `rewardDebt` gets updated.\r\n        uint256 lastDepositedTime;\r\n    }\r\n\r\n    // Info of each pool.\r\n    IBEP20 public lpToken;           // Address of LP token contract.\r\n    uint256 public allocPoint;       // How many allocation points assigned to this pool. Meats to distribute per block.\r\n    uint256 public lastRewardBlock;  // Last block number that Meats distribution occurs.\r\n    uint256 public accMeatPerShare; // Accumulated Meats per share, times 1e12. See below.\r\n\r\n    // The BITX TOKEN!\r\n    BEP20 public bitx;\r\n    // The MEAT TOKEN!\r\n    BEP20 public meat;\r\n    // Dev address.\r\n    address public devaddr;\r\n    // Meat tokens created per block.\r\n    uint256 public meatPerBlock;\r\n    // Bonus muliplier for early Meat makers.\r\n    uint256 public BONUS_MULTIPLIER = 1;\r\n\r\n    uint256 public withdrawFeePeriod = 720 days; // 30 days\r\n    // The migrator contract. It has a lot of power. Can only be set through governance (owner).\r\n    IMigratorChef public migrator;\r\n\r\n    // Info of each user that stakes LP tokens.\r\n    mapping (address => UserInfo) public userInfo;\r\n    // Total allocation poitns. Must be the sum of all allocation points in all pools.\r\n    uint256 public totalAllocPoint = 0;\r\n    // The block number when Meat mining starts.\r\n    uint256 public startBlock;\r\n\r\n    event Deposit(address indexed user, uint256 amount);\r\n    event Withdraw(address indexed user, uint256 amount);\r\n    event EmergencyWithdraw(address indexed user, uint256 amount);\r\n\r\n    constructor(\r\n        BEP20 _bitx,\r\n        BEP20 _meat,\r\n        address _devaddr,\r\n        uint256 _meatPerBlock,\r\n        uint256 _startBlock\r\n    ) {\r\n        bitx = _bitx;\r\n        meat = _meat;\r\n        devaddr = _devaddr;\r\n        meatPerBlock = _meatPerBlock;\r\n        startBlock = _startBlock;\r\n\r\n        // staking pool\r\n        lpToken = _bitx;\r\n        allocPoint = 1000;\r\n        lastRewardBlock = startBlock;\r\n        accMeatPerShare = 0;\r\n\r\n        totalAllocPoint = 1000;\r\n    }\r\n\r\n    function updateMultiplier(uint256 multiplierNumber) public onlyOwner {\r\n        BONUS_MULTIPLIER = multiplierNumber;\r\n    }\r\n\r\n   \r\n    // Set the migrator contract. Can only be called by the owner.\r\n    function setMigrator(IMigratorChef _migrator) public onlyOwner {\r\n        migrator = _migrator;\r\n    }\r\n\r\n    function getEnableWithdraw(address account) external view returns (bool) {\r\n        UserInfo memory user = userInfo[account];\r\n        return block.timestamp > user.lastDepositedTime.add(withdrawFeePeriod);\r\n    }\r\n\r\n    // Return reward multiplier over the given _from to _to block.\r\n    function getMultiplier(uint256 _from, uint256 _to) public view returns (uint256) {\r\n        return _to.sub(_from).mul(BONUS_MULTIPLIER);\r\n    }\r\n\r\n    // View function to see pending Meats on frontend.\r\n    function pendingMeat(address _user) external view returns (uint256) {\r\n        UserInfo storage user = userInfo[_user];\r\n        uint256 newAccMeatPerShare = accMeatPerShare;\r\n        uint256 lpSupply = lpToken.balanceOf(address(this));\r\n        if (block.number > lastRewardBlock && lpSupply != 0) {\r\n            uint256 multiplier = getMultiplier(lastRewardBlock, block.number);\r\n            uint256 meatReward = multiplier.mul(meatPerBlock).mul(allocPoint).div(totalAllocPoint);\r\n            newAccMeatPerShare = accMeatPerShare.add(meatReward.mul(1e12).div(lpSupply));\r\n        }\r\n        return user.amount.mul(accMeatPerShare).div(1e12).sub(user.rewardDebt);\r\n    }\r\n\r\n   \r\n    \r\n    // Update reward variables of the given pool to be up-to-date.\r\n    function updatePool() public {\r\n        if (block.number <= lastRewardBlock) {\r\n            return;\r\n        }\r\n        uint256 lpSupply = lpToken.balanceOf(address(this));\r\n        if (lpSupply == 0) {\r\n            lastRewardBlock = block.number;\r\n            return;\r\n        }\r\n        uint256 multiplier = getMultiplier(lastRewardBlock, block.number);\r\n        uint256 meatReward = multiplier.mul(meatPerBlock).mul(allocPoint).div(totalAllocPoint);\r\n        accMeatPerShare = accMeatPerShare.add(meatReward.mul(1e12).div(lpSupply));\r\n        lastRewardBlock = block.number;\r\n    }\r\n\r\n    // Deposit LP tokens to MasterChef for Meat allocation.\r\n    function deposit(uint256 _amount) public {\r\n\r\n        UserInfo storage user = userInfo[msg.sender];\r\n        updatePool();\r\n        if (user.amount > 0) {\r\n            uint256 pending = user.amount.mul(accMeatPerShare).div(1e12).sub(user.rewardDebt);\r\n            if(pending > 0) {\r\n                safeMeatTransfer(msg.sender, pending);\r\n            }\r\n        }\r\n        if (_amount > 0) {\r\n            lpToken.safeTransferFrom(address(msg.sender), address(this), _amount);\r\n            user.amount = user.amount.add(_amount);\r\n        }\r\n        user.rewardDebt = user.amount.mul(accMeatPerShare).div(1e12);\r\n        user.lastDepositedTime = block.timestamp;\r\n        emit Deposit(msg.sender, _amount);\r\n    }\r\n\r\n    // Withdraw LP tokens from MasterChef.\r\n    function withdraw(uint256 _amount) public {\r\n\r\n        UserInfo storage user = userInfo[msg.sender];\r\n        require(user.amount >= _amount, \"withdraw: not good\");\r\n        updatePool();\r\n        uint256 pending = user.amount.mul(accMeatPerShare).div(1e12).sub(user.rewardDebt);\r\n        if(pending > 0) {\r\n            safeMeatTransfer(msg.sender, pending);\r\n        }\r\n\r\n        if(_amount > 0 && block.timestamp > user.lastDepositedTime.add(withdrawFeePeriod)) {\r\n            user.amount = user.amount.sub(_amount);\r\n            lpToken.safeTransfer(address(msg.sender), _amount);\r\n        }\r\n        user.rewardDebt = user.amount.mul(accMeatPerShare).div(1e12);\r\n        emit Withdraw(msg.sender, _amount);\r\n    }\r\n\r\n    \r\n\r\n    // Withdraw without caring about rewards. EMERGENCY ONLY.\r\n    function emergencyWithdraw() public {\r\n        UserInfo storage user = userInfo[msg.sender];\r\n        lpToken.safeTransfer(address(msg.sender), user.amount);\r\n        emit EmergencyWithdraw(msg.sender, user.amount);\r\n        user.amount = 0;\r\n        user.rewardDebt = 0;\r\n    }\r\n\r\n\r\n    // Safe Meat transfer function, just in case if rounding error causes pool to not have enough Meats.\r\n    function safeMeatTransfer(address _to, uint256 _amount) internal {\r\n        meat.transfer(_to, _amount);\r\n    }\r\n\r\n    // Update dev address by the previous dev.\r\n    function dev(address _devaddr) public {\r\n        require(msg.sender == devaddr, \"dev: wut?\");\r\n        devaddr = _devaddr;\r\n    }\r\n}",
  "sourcePath": "D:\\Work\\Blockchain\\starking\\frontend\\src\\backend\\contracts\\LockBitx.sol",
  "compiler": {
    "name": "solc",
    "version": "0.8.0+commit.c7dfd78e.Emscripten.clang"
  },
  "schemaVersion": "3.4.3",
  "updatedAt": "2022-04-07T12:29:52.566Z",
  "devdoc": {
    "kind": "dev",
    "methods": {
      "owner()": {
        "details": "Returns the address of the current owner."
      },
      "renounceOwnership()": {
        "details": "Leaves the contract without owner. It will not be possible to call `onlyOwner` functions anymore. Can only be called by the current owner. NOTE: Renouncing ownership will leave the contract without an owner, thereby removing any functionality that is only available to the owner."
      },
      "transferOwnership(address)": {
        "details": "Transfers ownership of the contract to a new account (`newOwner`). Can only be called by the current owner."
      }
    },
    "version": 1
  },
  "userdoc": {
    "kind": "user",
    "methods": {},
    "version": 1
  }
}